{
  "contractName": "Dapp",
  "abi": [
    {
      "constant": true,
      "inputs": [],
      "name": "n",
      "outputs": [
        {
          "name": "",
          "type": "uint256"
        }
      ],
      "payable": false,
      "stateMutability": "view",
      "type": "function"
    },
    {
      "constant": true,
      "inputs": [],
      "name": "sender",
      "outputs": [
        {
          "name": "",
          "type": "address"
        }
      ],
      "payable": false,
      "stateMutability": "view",
      "type": "function"
    },
    {
      "constant": true,
      "inputs": [],
      "name": "owner",
      "outputs": [
        {
          "name": "",
          "type": "address"
        }
      ],
      "payable": false,
      "stateMutability": "view",
      "type": "function"
    },
    {
      "inputs": [],
      "payable": false,
      "stateMutability": "nonpayable",
      "type": "constructor"
    },
    {
      "payable": true,
      "stateMutability": "payable",
      "type": "fallback"
    },
    {
      "anonymous": false,
      "inputs": [
        {
          "indexed": false,
          "name": "",
          "type": "string"
        },
        {
          "indexed": false,
          "name": "",
          "type": "uint256"
        }
      ],
      "name": "debug",
      "type": "event"
    },
    {
      "anonymous": false,
      "inputs": [
        {
          "indexed": false,
          "name": "",
          "type": "string"
        },
        {
          "indexed": false,
          "name": "",
          "type": "address"
        }
      ],
      "name": "debug",
      "type": "event"
    },
    {
      "constant": false,
      "inputs": [
        {
          "name": "_n",
          "type": "uint256"
        }
      ],
      "name": "setN",
      "outputs": [
        {
          "name": "",
          "type": "uint256"
        }
      ],
      "payable": false,
      "stateMutability": "nonpayable",
      "type": "function"
    },
    {
      "constant": false,
      "inputs": [
        {
          "name": "_n",
          "type": "uint256"
        }
      ],
      "name": "setN_getSender",
      "outputs": [
        {
          "name": "",
          "type": "address"
        }
      ],
      "payable": false,
      "stateMutability": "nonpayable",
      "type": "function"
    },
    {
      "constant": false,
      "inputs": [
        {
          "name": "_n",
          "type": "uint256"
        }
      ],
      "name": "setN_restricted",
      "outputs": [
        {
          "name": "",
          "type": "uint256"
        }
      ],
      "payable": false,
      "stateMutability": "nonpayable",
      "type": "function"
    }
  ],
  "bytecode": "0x608060405234801561001057600080fd5b5060008054600160a060020a031916331790556104da806100326000396000f3fe608060405260043610610071577c01000000000000000000000000000000000000000000000000000000006000350463055d240681146100f75780632e52d606146101335780633f7a027014610148578063653f71fe1461017257806367e404ce146101b85780638da5cb5b146101cd575b7fa7ed278d721ee836eac703f80f12be31464b53d8a80d8ca4115cae0bf4302b8f33604051808060200183600160a060020a0316600160a060020a0316815260200182810382526037815260200180610478603791396040019250505060405180910390a16002805473ffffffffffffffffffffffffffffffffffffffff191633179055005b34801561010357600080fd5b506101216004803603602081101561011a57600080fd5b50356101e2565b60408051918252519081900360200190f35b34801561013f57600080fd5b5061012161027b565b34801561015457600080fd5b506101216004803603602081101561016b57600080fd5b5035610281565b34801561017e57600080fd5b5061019c6004803603602081101561019557600080fd5b50356102b0565b60408051600160a060020a039092168252519081900360200190f35b3480156101c457600080fd5b5061019c6102f0565b3480156101d957600080fd5b5061019c6102ff565b60008054600160a060020a03163314610246576040517f08c379a00000000000000000000000000000000000000000000000000000000081526004018080602001828103825260268152602001806104526026913960400191505060405180910390fd5b60018290556002805473ffffffffffffffffffffffffffffffffffffffff1916331790556102738261030e565b505060015490565b60015481565b60018190556002805473ffffffffffffffffffffffffffffffffffffffff19163317905560006102738261030e565b60018190556002805473ffffffffffffffffffffffffffffffffffffffff19163317905560006102df8261030e565b5050600254600160a060020a031690565b600254600160a060020a031681565b600054600160a060020a031681565b60408051602081018390528181526010818301527f46756e6374696f6e20696e7075743a2000000000000000000000000000000000606082015290517f2be43a0dfcfe1ec7d6e94aaf666026287c9ea04dc295340a9b763165734070ea9181900360800190a16001546040805160208101929092528082526013828201527f56616c7565206f66204e206973206e6f773a20000000000000000000000000006060830152517f2be43a0dfcfe1ec7d6e94aaf666026287c9ea04dc295340a9b763165734070ea9181900360800190a160025460408051600160a060020a039092166020830152808252600f828201527f53656e646572206973206e6f773a2000000000000000000000000000000000006060830152517fa7ed278d721ee836eac703f80f12be31464b53d8a80d8ca4115cae0bf4302b8f9181900360800190a15056fe4e6f6e2d4f776e657220616363657373656420726573747269637465642066756e6374696f6e46616c6c6261636b2066756e6374696f6e206f66206441707020636f6e747261637420686173206265656e2063616c6c65642062793a20a165627a7a72305820dfd55f606edba2115acb84120d90d6fcc58922448948af22a4e3e055ffe62af40029",
  "source": "pragma solidity ^0.5.4;\n\n/*  Example dapp contract to demo use of proxy contract.\n    Only stores 2 variable and exposes a setter function for these values.\n*/\ncontract Dapp {\n    address public owner;\n\n    constructor() public {\n        owner = msg.sender;\n    }\n\n    modifier restricted() {\n        require(msg.sender == owner, \"Non-Owner accessed restricted function\");\n        _;\n    }\n\n    /* The values to be stored and publicly accessible to be read */\n    uint256 public n;\n    address public sender;\n\n    /* Events used for Debugging */\n    event debug(string, uint256);\n    event debug(string, address);\n\n    function debug_values(uint256 _n) internal {\n        // Emit the values passed into the function\n        emit debug(\"Function input: \", _n);\n\n        // Emit the global values via events for debugging\n        emit debug(\"Value of N is now: \", n);\n        emit debug(\"Sender is now: \", sender);\n    }\n\n    // Setter function to change the stored variables\n    function setN(uint256 _n) public returns (uint256) {\n        n = _n;\n        sender = msg.sender;\n\n        debug_values(_n);\n        return n;\n    }\n\n    // Same function as setN, but gets the sender address as return value\n    function setN_getSender(uint256 _n) public returns (address) {\n        n = _n;\n        sender = msg.sender;\n\n        debug_values(_n);\n        return sender;\n    }\n\n    // Setter function to change the stored variables\n    function setN_restricted(uint256 _n) public restricted returns (uint256) {\n        n = _n;\n        sender = msg.sender;\n\n        debug_values(_n);\n        return n;\n    }\n    \n    // Simple fallback function that will just fire off an event when called.\n    function() external payable {\n        emit debug(\"Fallback function of dApp contract has been called by: \", msg.sender);\n        sender = msg.sender;\n    }\n}",
  "sourcePath": "C:\\Users\\JJ\\Documents\\projs\\torus\\torus-relayer\\test\\contracts\\TestDapp.sol",
  "compiler": {
    "name": "solc",
    "version": "0.5.4+commit.9549d8ff.Emscripten.clang",
    "optimizer": true,
    "runs": 200
  },
  "schemaVersion": "2.2.1",
  "updatedAt": "2020-01-09T06:30:14.342Z"
}